:0F0155004B75616E677765696A696500343300C1
:1001200011082050656368696E20536369656E63CA
:0301300065200047
:1000D70012008F7BFF7A0179557F801200B37BFF77
:0900E7007A0179617FC00200B3C7
:10008F007F381201097FC87E0012013A7F0E1201DC
:10009F00097FC87E0012013A7F061201097FC87ED0
:0400AF000002013A10
:06013400AD077FE87E0329
:0B013A00EF1FAC0670011E4C70F62297
:10010900120134C2A7C2A5C2A68D80D2A77F147ED0
:070119000012013AC2A72207
:10014500120134C2A7C2A5D2A6D2A78D80C2A7220A
:1000B3008F19801A1200F0FF60191201457401298B
:1000C300F9E43AFAAF190519EFB48FE87FC01201CA
:0400D3000980E1229D
:050164007F010201090A
:03000000020003F8
:0C000300787FE4F6D8FD75811902004AF0
:1000F000BB010689828A83E0225002E722BBFE020E
:09010000E32289828A83E4932240
:10000F000200D7E493A3F8E493A34003F68001F230
:10001F0008DFF48029E493A3F85407240CC8C333F2
:10002F00C4540F4420C8834004F456800146F6DFC1
:10003F00E4800B0102040810204080900120E47E30
:10004F00019360BCA3FF543F30E509541FFEE493B6
:10005F00A360010ECF54C025E060A840B8E493A37D
:10006F00FAE493A3F8E493A3C8C582C8CAC583CAA8
:10007F00F0A3C8C582C8CAC583CADFE9DEE780BE60
:0101330000CB
:00000001FF
